:1000000018C031C000C12FC038C32DC02CC02BC0B8
:100010002AC029C00CC127C026C025C024C00102A7
:1000200004081020010101010101003600380037E9
:100030000D0111241FBECFE5D2E0DEBFCDBF21E010
:10004000A0E6B0E001C01D92A237B207E1F710E0D0
:10005000C2E3D0E003C02297FE0180D4C033D107B1
:10006000D1F72CD47FC4CCCF0F931F93379802E3E2
:1000700010E020E030E000937F0010938000209398
:100080008100309382004AEF50E060E070E04093DE
:10009000830050938400609385007093860088EEFF
:1000A00093E0A0E0B0E08093870090938800A09355
:1000B0008900B0938A000093650010936600209336
:1000C0006700309368004093690050936A00609322
:1000D0006B0070936C0080936D0090936E00A09302
:1000E0006F00B093700010926100109260001F9139
:1000F0000F9108958CE790E047D282E690E044D2D9
:100100008091600090916100892B09F07BC0809103
:100110007C0090917D008130910511F0019649F4A9
:100120002CE030E041E150E061E070E086E990E0F1
:10013000A3D180917C0090917D008230910511F0D7
:10014000029649F42CE030E041E250E061E070E0DA
:1001500086E990E091D180917C0090917D00833080
:10016000910511F0039649F42CE030E04CE050E0AA
:1001700061E070E086E990E07FD180917C00909111
:100180007D008430910511F0049649F42CE030E0B4
:1001900040E150E061E070E086E990E06DD180914F
:1001A0006200909163008130910511F0019649F44D
:1001B0002CE030E040E150E061E070E086E990E062
:1001C0005BD18091620090916300029749F42CE02A
:1001D00030E040E250E061E070E086E990E04CD130
:1001E00080916200909163008330910511F0039635
:1001F00049F42CE030E04CE050E061E070E086E94A
:1002000090E03AC108951F920F920FB60F921124F9
:100210000F900FBE0F901F90189540E062E08CE7A2
:1002200090E085D140E063E082E690E080C11F92DB
:100230000F920FB60F9211242F933F934F935F931A
:100240006F937F938F939F93AF93BF93EF93FF939E
:100250008091980008D320919C0030919D002F5FE1
:100260003F4F30939D0020939C0090919B009536CA
:1002700018F096E090939700909197009430C9F110
:1002800028F4923069F09330D1F05EC0953009F4D3
:1002900051C0963009F058C091E09093680151C068
:1002A000811152C020919C0030919D00243631056F
:1002B00008F442C01092680110929B001CC081306B
:1002C00009F042C0E0919B0091E09E0F90939B004B
:1002D000F0E020919C0030919D00EE0FFF1FE95649
:1002E000FF4F3087278310929D0010929C0094E06E
:1002F00029C0811117C0E0919B0091E09E0F90935F
:100300009B00F0E020919C0030919D00EE0FFF1FBC
:10031000E956FF4F3087278310929D0010929C0072
:1003200093E010C020919C0030919D00253631054E
:1003300058F007C0811108C010929D0010929C00D7
:1003400003C095E09093970090919A009923B1F0A3
:1003500081110AC080919900882321F08091990031
:1003600061E009C0C59A0AC080919900882329F0EC
:100370008091990060E048D201C0C598FF91EF914B
:10038000BF91AF919F918F917F916F915F914F91AD
:100390003F912F910F900FBE0F901F901895CF9304
:1003A000DF93EB0189B78F7E89BF61E081E0F5D1F2
:1003B00060E081E029D29E01442737FD4095542F0B
:1003C0006AE370E280E090E089D2822F91E09ABDEA
:1003D00099E093BF29BD63E075D288BDDF91CF91CD
:1003E00008958F929F92AF92BF92CF92DF92EF9239
:1003F000FF926A017B014530510561057105E8F006
:100400008FD14B015C0184E0C81AD108E108F108E2
:10041000C80CD91CEA1CFB1CC814D904EA04FB0450
:1004200030F47ED186169706A806B906D0F378D1A7
:100430006C157D058E059F05D0F3FF90EF90DF9042
:10044000CF90BF90AF909F908F9008952AB5206273
:100450002ABD6115710521F0AB0160E070E0C1CFEC
:1004600008952AB52F7D2ABD6115710521F0AB01D4
:1004700060E070E0B6CF08958F929F92AF92BF92E6
:10048000CF92DF92EF92FF92CF93DF93EC014A017C
:100490005B01790164E270E082DF69E773E0CE011D
:1004A000D5DF69E773E0CE01DCDF69E773E0CE01F9
:1004B000CDDFC7010197C12CD12C7601C39404C0B4
:1004C000CC0CDD1CEE1CFF1C8A95D2F7C114D104A4
:1004D000E104F104F1F0D701C60188219921AA2194
:1004E000BB2169E773E0892B8A2B8B2B39F0CE0176
:1004F000B8DF69E773E0CE01A9DF06C0CE01A6DF51
:1005000069E773E0CE01ADDFF694E794D794C79422
:10051000DDCF60E070E0CE01DF91CF91FF90EF90F2
:10052000DF90CF90BF90AF909F908F909ACFFC01BB
:10053000862F608B418B91E0411190E0928B938BE1
:10054000158A148A118210821282168A178A108ED6
:10055000118E44E150E060E070E043835483658392
:1005600076834AEF50E060E070E047835087618710
:10057000728748EE53E060E070E0438754876587F8
:100580007687178660E009C1CF92DF92EF92FF92E3
:10059000CF93DF93EC01B8D06B017C01888963D1E4
:1005A0008A8B9989911104C091E0811190E09A8B16
:1005B0002A893B89231721F0CE8ADF8AE88EF98EBB
:1005C0008E899F89A88DB98DB701A601481B590B4B
:1005D0006A0B7B0B8B819C81AD81BE818417950753
:1005E000A607B7075CF48A81281741F02A832223E3
:1005F00029F08C899D8901969D8B8C8B321301C0CB
:100600001F862B8B8A8181110CC08F819885A985CB
:10061000BA8584179507A607B707CCF48C899D89FE
:100620000EC08B859C85AD85BE8584179507A60772
:10063000B7076CF48C899D8991958195910999836F
:1006400088831D8A1C8A892B11F081E08F87DF91B6
:10065000CF91FF90EF90DF90CF90089583B7887F80
:1006600083BF8AB58C7F81608ABD83B7877F83BF54
:1006700083B7887F836083BF089578941F920F9219
:100680000FB60F9211242F933F938F939F93AF93A5
:10069000BF9380916A0190916B01A0916C01B09120
:1006A0006D01309169012CE7230F2D3728F02FEFD2
:1006B000230F0196A11DB11D2093690180936A014A
:1006C00090936B01A0936C01B0936D0180916E01CA
:1006D00090916F01A0917001B09171010196A11DDF
:1006E000B11D80936E0190936F01A0937001B09340
:1006F0007101BF91AF919F918F913F912F910F9079
:100700000FBE0F901F9018952FB7F89460916A0153
:1007100070916B0180916C0190916D012FBF0895D4
:100720003FB7F89480916E0190916F01A091700194
:10073000B09171012FB508B602FE05C02F3F19F028
:100740000196A11DB11D3FBF6627782F892F9A2FD3
:10075000620F711D811D911D42E0660F771F881F7A
:10076000991F4A95D1F70895789480B7806880BF23
:1007700080B7806480BF8CB580648CBD8FEF8DBDE9
:1007800080B7807F876080BF89B7846089BF66DF5C
:1007900086B1876086B9379A0895CF93DF9390E04A
:1007A000FC01E25EFF4F2491FC01EC5DFF4F849160
:1007B000882339F190E0FC01E25DFF4FA491B0E0A5
:1007C000FC01E45DFF4F8491611106C09FB7F8946E
:1007D0008C912095822313C0623069F4C82FD0E039
:1007E0009FB7F8948C91322F309583238C93888116
:1007F000822B888305C09FB7F8948C91822B8C93B1
:100800009FBFDF91CF910895A82FB0E0FD01E25E78
:10081000FF4F9491FD01EC5DFF4FE491EE2311F148
:10082000811103C08AB58F7304C0813021F48AB569
:100830008F7C8ABD05C0843019F48CB58F7C8CBD4B
:10084000F0E0E45DFF4FA491B0E02FB7611105C067
:10085000F8948C919095892303C0F8948C91892BFE
:100860008C932FBF0895282F30E0F901E25EFF4FEF
:100870009491F901EC5DFF4FE491EE23E1F08111D9
:1008800003C08AB58F7304C0813021F48AB58F7C90
:100890008ABD05C0843019F48CB58F7C8CBDF0E026
:1008A000E65DFF4FE491F0E02081292381E090E0B4
:1008B00021F480E0089580E090E0089555DFD4DBD6
:1008C00019DCFECF991B79E004C0991F961708F038
:1008D000961B881F7A95C9F780950895052E97FB7A
:1008E00016F400940FD057FD05D014D007FC02D0A9
:1008F00046F408C050954095309521953F4F4F4F95
:100900005F4F089590958095709561957F4F8F4FBB
:100910009F4F0895A1E21A2EAA1BBB1BFD010DC01B
:10092000AA1FBB1FEE1FFF1FA217B307E407F5079F
:1009300020F0A21BB30BE40BF50B661F771F881F7B
:10094000991F1A9469F760957095809590959B0111
:10095000AC01BD01CF010895EE0FFF1F0590F4918A
:08096000E02D0994F894FFCF8B
:00000001FF
